:040F25002A0023007B
:100BC500120EA37F15120EA37F15120EA37F1F12FF
:100BD5000EA37FC0120E7DE4FF120EA37F0A7E00D6
:100BE500120C237F48120E7DE4FF120EA3E4FF12C0
:100BF5000EA3E4FF120EA3E4FF120EA3E4FF120EF0
:100C0500A37F0E120EA37F0A120EA37F0E120EA350
:0E0C15007F80120E7D7F01120EA37F0A7E00EB
:100C2300E4FDFCC3ED9FEC9E5015E4FBFA0BBB0007
:0F0C3300010ABA04F8BBFBF50DBD00010C80E40B
:010C4200228F
:100E67007F38120E7D7F0E120E7D7F01120E7D7F61
:060E770082120E7D7F4097
:100E7D008FA0C290C291D2927F017E00120C23C22C
:020E8D009222AF
:100E8F00120EA37F14120EA37F15120EA37F15123D
:040E9F000EA37F150A
:100EA3008FA0D290C291D2927F017E00120C23C2F6
:020EB300922289
:060E0C008B0B8A0C890D1E
:100E1200E4F50EF50FAB0BAA0CA90D850F82850E1A
:100E220083120E3AFF6010120EA3050FE50F700237
:070E3200050E120C1F80DE0B
:010E39002296
:100EDB008B088A09890A7F38120E7D7F0E120E7DD0
:100EEB007F01120E7D7F82120E7DAB08AA09A90A23
:030EFB00020E0CD8
:100D0400120E677F18120EA37F18120EA37F08120B
:100D14000EA37F08120EA37F18120BC57F50120E6C
:100D24007D7F02120EA37F02120EA37F1E120E8F6E
:100D34007F1F120EA37F82120E7D7F02120EA37FED
:060D44000A7E00020C23F0
:10089600120E677F10120EA37F08120EA37F04129A
:1008A6000EA37F02120EA37F01120E997F1F120E56
:1008B600A37FC0120E7DE4FF120C1C7F48120E7D32
:1008C6007F02120EA37F02120EA37F1E120EA37FBB
:1008D60012120EA37F12120EA37F12120EA37F1204
:1008E600120EA37F1E120C127F50120E7D7F011274
:1008F6000EA37F01120EA37F1F120EA37F11120EED
:10090600A37F13120EA37F11120E9E7F1F120EA33A
:100916007F82120E7D7F02120EA37F0A7E00020CDA
:0109260023AD
:100AC100120E677F01120EA3E4FF120EA37F0F1215
:100AD1000EA3E4FF120EA3E4FF120EA37F14120E65
:100AE100A37F14120EA37F1F120EA37FC0120E7DCF
:100AF100E4FF120C1C7F48120E7D7F10120EA37FA3
:100B010010120EA37F10120EA37F17120E947F1DD9
:100B1100120C127F50120E7D7F04120EA37F04125D
:100B21000EA37F1C120E947F15120EA37F1F120EAF
:100B3100A37F82120E7D7F02120EA37F0A7E000226
:020B41000C2383
:1009B300120E677F1F120EA37F19120EA37F01125F
:1009C3000EA37F01120EA37F1D120E997F17120E25
:1009D300A37FC0120E7DE4FF120C1C7F48120E7D14
:1009E3007F1D120E9E7F1D120EA37F11120EA37F79
:1009F30011120EA37F11120EA37F11120EA37F1FDC
:100A0300120C127F70120E7D7F1F120E99E4FF12DB
:100A13000EA3E4FF120EA3E4FF120EA3E4FF120ED3
:100A2300A3E4FF120EA37FC4120E7D7F06120EA352
:070A33007F0A7E00020C2384
:100CAA00120E677F1F120E997F01120EA37F011287
:100CBA000E997F1F120EA37FC0120E7DE4FF120C45
:100CCA001C7F48120E7D7F01120EA37F1F120EA3F6
:100CDA007F11120EA37F11120E9E7F1F120EA37F89
:100CEA0004120EA37F07120EA37F80120E7D7F01CE
:0A0CFA00120EA37F0A7E00020C23F5
:10092700120E677F1C120EA37F14120EA37F1C12D8
:100937000EA37F13120EA37F10120EA37F10120EA9
:10094700A37F08120EA37F07120EA37FC0120E7D8E
:10095700E4FF120C1C7F48120E7D7F1C120EA37F32
:1009670014120EA37F14120EA37F1C120EA37F1066
:10097700120EA37F10120EA37F10120EA37F101268
:100987000C127F50120E7D7F04120EA37F1C120ED5
:100997008F7F15120EA37F1F120EA37F82120E7D6B
:0C09A7007F02120EA37F0A7E00020C23C8
:10080000120E677F01120EA37F1F120EA37F10121C
:100810000EA37F08120EA37F06120E997F1F120EE1
:10082000A37FC0120E7DE4FF120C1C7F48120E7DC8
:10083000E4FF120EA37F11120EA37F11120EA37FED
:100840000A120EA37F04120EA37F0A120EA37F11B9
:10085000120EA37F1F120C127F50120E7DE4FF12A6
:100860000EA3E4FF120EA37F04120EA37F04120E48
:10087000A37F04120EA37F04120EA37F04120EA303
:100880007F1C120EA37F82120E7D7F02120EA37FA9
:060890000A7E00020C23A9
:100A3A00120E67E4FF120EA37F10120EA37F081294
:100A4A000EA37F04120EA37F02120BC57F50120E53
:100A5A007D7F1B120EA37F11120EA37F11120EA30C
:100A6A007F1B120EA37F11120E997F1F120EA37FF6
:100A7A0082120E7D7F02120C1C7F58120E7DE4FF3B
:100A8A00120EA3E4FF120EA37F04120EA37F041218
:100A9A000EA37F04120EA37F04120EA37F04120E6C
:100AAA00A37F1C120EA37F84120E7D7F03120EA356
:070ABA007F0A7E00020C23FD
:100B4300120E677F18120EA37F18120EA37F0812CE
:100B53000EA37F18120EA37F10120BC57F50120E27
:100B63007D7F19120EA37F19120EA37F09120EA304
:100B73007F1D120E947F1F120EA37F82120E7D7FA4
:100B830002120C1C7F58120E7D7F04120EA37F1CD1
:100B9300120EA37F04120EA37F04120EA37F1D1255
:100BA3000EA37F05120EA37F05120EA37F1F120E45
:100BB300A37F84120E7D7F03120EA37F0A7E0002A1
:020BC3000C2301
:100EFE00E4F583F5827F1C120E7D7F4B7E00120C73
:0A0F0E0023A3E582640C458370EB19
:010F180022B6
:100C4300EE7063EFB40D00505D900C53F8282873D9
:100C5300020C95020C7A020C7D020C80020C8302BA
:100C63000C86020C89020C8C020C8F020C92020C73
:100C7300A9020C98020CA0020D04020896020AC1F4
:100C83000209B3020CAA020927020800020A3A0267
:100C93000B43020EFE7BFF7A0F792580067BFF7ADA
:070CA3000F7927120EDB227E
:100D4A00D283D282D281D280C2802084077F017E60
:100D5A0000120C43D280C2812084077F047E0012D5
:100D6A000C43D281C2822084077F077E00120C4383
:100D7A00D282C2832084077F0B7E00120C43D28367
:010D8A002246
:100DCC00D283D282D281D280C2802085077F027EDC
:100DDC0000120C43D280C2812085077F057E001251
:100DEC000C43D281C2822085077F087E00120C43FF
:100DFC00D282C283208506E4FFFE120C43D28322EA
:100D8B00D283D282D281D280C2802086077F037E1B
:100D9B0000120C43D280C2812086077F067E001290
:100DAB000C43D281C2822086077F097E00120C433E
:100DBB00D282C2832086077F0C7E00120C43D28323
:010DCB002205
:100EB500D286D285D284C283C282C281C280208476
:100EC50005120D4A80F0208505120DCC80E820869C
:060ED500E5120D8B80E028
:03000000020F19D3
:0C0F1900787FE4F6D8FD75810F020EB55C
:100E3A00BB010CE58229F582E5833AF583E022506D
:100E4A0006E92582F8E622BBFE06E92582F8E222B7
:0D0E5A00E58229F582E5833AF583E49322D1
:00000001FF
